:080000000C9403030C940000B2
:100008000C9400000C9400000C9400000C94000068
:100018000C9400000C9400000C9400000C94000058
:100028000C9400000C9400000C9400000C94000048
:100038000C9484040C9400000C9400000C940000B0
:100048000C9400000C9400000C9400000C94000028
:100058000C9400000C9400000C9400000C94000018
:1000680000000000000000000000000000005F0029
:100078000000000000000700000007000000140056
:100088007F0014007F00140024002A007F002A004B
:1000980012002300130008006400620036004900C3
:1000A8005500220050000000050003000000000079
:1000B80000001C0022004100000000004100220056
:1000C8001C000000140008003E000800140008008E
:1000D80008003E0008000800000050003000000042
:1000E8000000080008000800080008000000600080
:1000F800600000000000200010000800040002005A
:100108003E005100490045003E00000042007F00CB
:1001180040000000420061005100490046002100F3
:10012800410045004B0031001800140012007F0008
:100138001000270045004500450039003C004A00F2
:100148004900490030000100710009000500030062
:1001580036004900490049003600060049004900B8
:1001680029001E00000036003600000000000000D4
:10017800560036000000000008001400220041006C
:1001880000001400140014001400140000004100C2
:1001980022001400080002000100510009000600B6
:1001A80032004900790041003E007E001100110034
:1001B80011007E007F0049004900490036003E00DA
:1001C80041004100410022007F004100410022001F
:1001D8001C007F0049004900490041007F000900D8
:1001E8000900090001003E004100490049007A0069
:1001F8007F000800080008007F00000041007F0021
:10020800410000002000400041003F0001007F0045
:1002180008001400220041007F0040004000400018
:1002280040007F0002000C0002007F007F000400F5
:10023800080010007F003E004100410041003E00E0
:100248007F0009000900090006003E004100510036
:1002580021005E007F0009001900290046004600C1
:100268004900490049003100010001007F000100F8
:1002780001003F004000400040003F001F002000F8
:10028800400020001F003F004000380040003F00B1
:1002980063001400080014006300070008007000E1
:1002A80008000700610051004900450043000000B4
:1002B8007F00410041000000020004000800100017
:1002C80020000000410041007F00000004000200FF
:1002D80001000200040040004000400040004000CF
:1002E8000000010002000400000020005400540037
:1002F800540078007F00480044004400380038006B
:1003080044004400440020003800440044004800F1
:100318007F003800540054005400180008007E0084
:100328000900010002000C005200520052003E0079
:100338007F000800040004007800000044007D00ED
:10034800400000002000400044003D000000000084
:100358007F00100028004400000041007F0040009A
:1003680000007C0004001800040078007C000800ED
:1003780004000400780038004400440044003800B9
:100388007C00140014001400080008001400140075
:1003980018007C007C0008000400040008004800E5
:1003A800540054005400200004003F004400400062
:1003B80020003C004000400020007C001C00200081
:1003C800400020001C003C004000300040003C0081
:1003D800440028001000280044000C005000500081
:1003E80050003C004400640054004C0044000000ED
:1003F8000800360041000000000000007F000000F7
:10040800000000004100360008000000100008004D
:100418000800100008001027E80364000A00010023
:1004280000100001100001000000000000000000A2
:1004380001004F776E2061646472657373206D618B
:10044800746368202B2057200A005265636569761B
:1004580065206120627974652C2073656E74204173
:10046800434B200A00556E6B6E6F776E20545749C8
:100478002073746174757320636F64650A00257551
:100488006425756825756D25757300257564257552
:100498006D257573002575642575730025756825A8
:1004A800757300536D6172742047617264656E20C4
:1004B80076322E310054656D70203A2025642E2541
:1004C8006420432021484F54210054656D70203A20
:1004D8002025642E256420430048756D20203A208D
:1004E80025642E25642025250044485431313A20BE
:1004F8004572726F7200476174653A204F50454EDD
:1005080000476174653A20434C4F5345004C4544BD
:100518003A204F4E004C45443A204F464600414C45
:100528004552543A2575730057616974326E6400F8
:10053800433A25640055703A25730055703A2025D2
:10054800752E25757300436E743A20257500496E23
:10055800697469616C697A696E672E2E2E00416E26
:100568006820766120486F692064657369676E004A
:1005780053797374656D20526561647921005469FB
:100588006D65723A204F4B0054696D65723A20458B
:1005980052524F52000007000300300418000003B5
:1005A8003A041B0018035204190033036D040100B8
:1005B8006F08380412004C03AB040D005E03F1040D
:1005C8000B006B03FE040C00760309050800820388
:1005D800150509008A031D0508009303300510005E
:1005E8009B0356051200AB0366050E00BD03780594
:1005F8000A00CB0386050D00D50390050000F8948A
:10060800EE27EFBBF1E0F5BFE5BF8DE0A2E0BB2729
:10061800ED938A95E9F780E098E0A0E0B1E0ED93EA
:100628000197E9F7EEE9F5E085919591009761F07A
:10063800A591B59105901590BF01F00105900D9217
:100648000197E1F7FB01F0CFE0E0EEBBEFEFEDBF84
:10065800E8E0EEBFC0E0D3E00C94DC080E94FA0B9F
:100668001A2F0C813D81E32FEE0FAE2FE02FE170A2
:10067800EA0FE093BA00E091B900EC7FE093B9008B
:10068800E12FF0E00E942E0CA0E0B4E284EF90E0AD
:100698000E94530CE051F040604070400E94290CC9
:1006A800E093B800E5E4E093BC0040C0E4EAE093DE
:1006B800BC00E091BC00E078E1F3E091B900E87F8C
:1006C8000895E4E9E093BC0008951A931A2F109353
:1006D800BB00E4E8E093BC00E091BC00E078E1F303
:1006E800E091B900E87F0BC31A931A2FDFDFA8E760
:1006F800ECDFA0E0EADFA12FE8DFE3DF00C30E9420
:10070800FA0B8D012C813D81D22EE32E00934608F1
:1007180010934708A055E8DFE22FEF70AE2FE4DF13
:10072800F9010E94200CE061AE2FDEDF0E94010C6F
:10073800269608950E94FA0B00E010E00830E0E0E9
:100748001E0784F420E030E02038E0E03E073CF467
:100758000E94FC0AA0E0A0832F5F3F4FF5CF0F5FF8
:100768001F4FECCFDD24EE24E0E0E0934608E09351
:1007780047080E94010C7EC40E94FA0B3A2FAD2D47
:10078800BE2D1A96A038E0E0BE0794F5303210F07E
:10079800303808F030E200E010E00530E0E01E07F5
:1007A800E4F40E94060BE00FF11FEA5BFB4FBF0168
:1007B800E32FF0E0B097AAE0B0E00E94380CE859C7
:1007C800FF4FDF01F801EE0FFF1FEA0FFB1FE49157
:1007D800DB01EC930F5F1F4FE0CF0E94060BE55B38
:1007E800FB4FA0E0A083E6E0F0E0DE0EEF1E04C0C1
:1007F800A6E4B8E00E94110B0E94010C3BC41A93B6
:100808000A938D01D801EC91E03039F0AC91B4DF56
:10081800D8010F5F1F4FEC91F5CFC7C40E94FA0BA8
:1008280000E010E00830E0E01E07D4F40E94170B47
:10083800D80165DF3BDFA8E748DFA0E446DF20E01A
:1008480030E02038E0E03E073CF40E94FC0AA0813A
:100858003CDF2F5F3F4FF5CF34DF0F5F1F4FE2CFF5
:100868000E94010C07C4ECE3EA93E0E0EA93A0EAF3
:10087800F5DEAEEA39DFA0E20E941C0BA0EB34DF04
:10088800A8EC0E941C0BA0E12FDFA0E42DDFA1E85B
:100898002BDFAFEC29DFA1EA27DFA6EA25DFA8EAEC
:1008A80023DFAFE321DFA4EA1FDFA3ED0E941C0BC7
:1008B800A5ED1ADFA0E818DFA9ED16DFA1EF14DF18
:1008C800AAED12DFA2E110DFABED0EDFA0E40CDF32
:1008D800ADE80ADFA4E108DFAFEA06DF2BDF9EDF21
:1008E8000895E0E0E4BDE5BDE6BDE2E0E4BDE3E097
:1008F800E5BDE9EFE7BDE2E0E0936E007894089586
:100908006A937A93AA93BA93EA93FA93EFB7EA931E
:10091800A8E4B8E00E94820CEF5FFF4F6F4F7F4F53
:100928000E94870CE0914C08EF5FE0934C08A0917F
:100938004C08BB27A83EE3E0BE071CF0E0E0E093CC
:100948004C08E991EFBFF991E991B991A991799191
:10095800699118952497F894E0914808F09149080E
:1009680060914A0870914B080E94210B78940E946C
:10097800240B80C30E94270B0E94950C0E942B0B0E
:1009880079C30E94A40C22970E94F80B0E94320B94
:100998000E94530C8F010E94320B0E943B0BE0E136
:1009A800FEE060E070E00E94530C9F01A885B985C5
:1009B8008A859B85E0E1FEE060E070E00E943B0BE9
:1009C800ECE3F0E060E070E00E94530CAF01A88512
:1009D800B9858A859B85ECE3F0E060E070E00E94D1
:1009E8007A0CEE83FF83002400160106B0F500247C
:1009F8000216030688F40E94460BE6E8F4E00E941B
:100A08004B0B0E94530BEE89FF890E945E0B80E11D
:100A18000E94AD0A649620C000240416050690F4CE
:100A28000E94460BE3E9F4E00E944B0BFA010E9496
:100A38005E0BEA89FB890E945E0B8CE00E94AD0A7E
:100A480060960AC00E94460BEDE9F4E00E944B0B49
:100A58000E94630B0E94660B45C000240216030621
:100A680018F500240416050688F40E94460BE9E8E8
:100A7800F4E0FA93EA930E94530BEA89FB890E94F7
:100A88005E0B8CE00E94AD0A60960DC00E94460B7A
:100A9800E4EAF4E0FA93EA93F9010E945E0B0E94FB
:100AA800630B0E94660B1EC000240416050670F432
:100AB8000E94460BECE8F4E0FA93EA93FA010E94EC
:100AC8005E0B0E94630B0E94660B0CC00E94460BD3
:100AD800EFE8F4E0FA93EA93EA85FB850E945E0B5F
:100AE8000E946B0B0E94FF0B2E960895219AE0E05E
:100AF800E0938000E0938100E0918000E260E09361
:100B08008000E0918100E861E0938100E09180003D
:100B1800E068E0938000E0918100E260E09381006A
:100B2800ECE9E0938700E0E4E093860005C0EBE0A1
:100B3800E0938900ECE704C0E4E0E0938900E4E294
:100B4800E09388000895569A5E98A4E1B0E00E9468
:100B5800C20C5E9A80EA8A95F1F7089556984E99E4
:100B6800FECF4E9BFECF4E99FECF08950E94FA0B02
:100B780010E020E030E02830E0E03E0794F44E9B9F
:100B8800FECF80EA8A95F1F74E9B05C0E12FEE0F64
:100B9800E1601E2F01C0110F4E99FECF2F5F3F4F0E
:100BA800EACFE12F0E94010C65C2CDDFD7DFDEDF7F
:100BB800F0E0E0934D08F0934E08D8DFF0E0E093C2
:100BC8004F08F0935008D2DFF0E0E0935108F0931B
:100BD8005208CCDFF0E0E0935308F0935408C6DFE6
:100BE800F0E0E0935508F0935608E0914F08F09133
:100BF8005008A0914D08B0914E08EA0FFB1F0E94C3
:100C0800700BEA0FFB1FA0915308B0915408AE0F68
:100C1800BF1FE0915508F0915608EA17FB0719F431
:100C28009924E1E00895E1E09E2EE0E0089508951A
:100C38000E94270B992021F40E94700B969708F4C4
:100C480017C0E0918408E03091F4E1E0E093840873
:100C58000E94240BE0938508F09386086093870828
:100C6800709388080E94750BE0E0E0938D0807C038
:100C78000E947F0B21F05A98E0E0E0938D08E09104
:100C88008408E03081F10E94860B0E948F0BE838BF
:100C9800A3E1FA07A0E06A07A0E07A0740F00E9403
:100CA8007F0B21F05A98E0E0E0938D081CC0A091DA
:100CB8008908B0918A0880918B0890918C080E94CD
:100CC8008F0B0E94930B78F0E0918D080E94330CF3
:100CD800E0938D080E94750BE0918D08E03011F0CB
:100CE8005A9A01C05A98C6C11A931A2F10936D08C0
:100CF800E0916D08E03011F05D9A01C05D9819919E
:100D0800089524971A9326DEE983FA836B837C83FC
:100D1800339B02C0E1E001C0E0E01E2FA0916F0804
:100D2800A13011F4103009F02EC0E0917508E030C0
:100D380089F4E1E0E09375080E949B0BE09370084A
:100D4800F09371086093720870937308E1E0E09380
:100D5800740819C00E94A00BEF31A0E0FA07A0E0C8
:100D68006A07A0E07A0718F00E94930B08F00BC0FE
:100D7800E2E0E0937408E0916D080E94330CAE2F16
:100D8800B3DF0E94AC0BE0917508E03051F00E948F
:100D9800A00BE93CA0E0FA07A0E06A07A0E07A0708
:100DA80008F402C00E94AC0B10936F0818812596B6
:100DB800089568970E94F80B0E94BA0BA0E0B0E073
:100DC8009EDCACE4B3E01BDD992009F044C00E942E
:100DD800170B0E94BD0BE0918408E03021F00E94BF
:100DE800700B969708F405C00E94C10BEDEBF4E078
:100DF80004C00E94C10BE2EDF4E0FA93EA93E0919B
:100E08005108F09152080E945E0BE0915308F0914E
:100E180054080E945E0B0E94660BA7E5B8E00E948A
:100E2800C60BA3E0B0E06BDC0E94C10BE1EEF4E07E
:100E3800FA93EA93E0914D08F0914E080E945E0BF8
:100E4800E0914F08F09150080E945E0B0E94660BDB
:100E5800A7E5B8E006C00E94170B0E94BD0BAEE5DF
:100E6800B3E0CDDC0E94170B0E94C90BE0916B0820
:100E7800E03019F0ABE6B3E002C0A6E7B3E0BFDCB0
:100E88000E94170BA6E0B0E03ADCE0916D08E03074
:100E980019F0A2E8B3E002C0AAE8B3E0B0DCE4E4E9
:100EA800F0E0FA93EA930E94C90BE0918408E030DD
:100EB80051F124974FDD0E94860B0E940E0CA8E882
:100EC800B3E180E090E00E94A90C0E940E0C0E9401
:100ED800210B0E94C10BE6E2F5E0FA93EA93AC819C
:100EE800BD818E819F810E942B0BEF5FFF4F6F4F5B
:100EF8007F4F66277727662777270E94CD0BA7E5C0
:100F0800B8E07DDC2496E0E4F0E0FA93EA93A6E00A
:100F1800B0E0F5DBE0917508E03019F0A3E9B3E043
:100F28000FC00E94C10BE8E3F5E0FA93EA93E09161
:100F38007408FF27662777270E94CD0BA7E5B8E03E
:100F48005EDC0E94170BA7E0B0E0D9DB03DDEA8F77
:100F5800FB8F6C8F7D8F0EDD8F010E94D00B20F4EC
:100F680000240016010608F019C0F8016627772743
:100F7800EE8BFF8B688F798FFE013696FA93EA9392
:100F8800A88DB98D8A8D9B8DFCDC0E94C10BEDE389
:100F9800F5E0FA93EA93FE013A9633C00E94D00B2B
:100FA80010F5AA8DBB8D8C8D9D8DE4E6F0E060E098
:100FB80070E00E94530C9F010E94C10BE3E4F5E02E
:100FC800FA93EA93D901EAE0F0E00E94400C0E940B
:100FD8005E0BD901EAE0F0E00E94770C0E945E0BFC
:100FE8000E94660B12C0F894E0914808F0914908F5
:100FF800AF0178940E94C10BEEE4F5E0FA93EA930E
:10100800FA01662777270E94CD0BA7E5B8E0F7DB42
:1010180005DC0E94FF0B6E9608950E94270BA09195
:101028008008B091810880918208909183080E947D
:101038008F0BE83EA3E0FA07A0E06A07A0E07A0772
:10104800C8F0AEE7B8E00E94110B0E94240BE093B1
:101058008008F09381086093820870938308E09178
:101068008E080E94330CE0938E08E03011F02D9A20
:1010780001C02D98249608951A930A93259A2D98BD
:10108800F2DB0E94BA0B0E94BD0BABE9B3E00E94F1
:10109800C60BA4E0B0E033DBABEAB3E0B0DBBEDB09
:1010A800A0EDB7E00E94C20C1CDC20DD45DD3998BC
:1010B800419A529A5A98559A5D983B98439A00E0FB
:1010C80010E00330E0E01E074CF45D9A0E94D70B55
:1010D8005D980E94D70B0F5F1F4FF3CFE0E0E093BE
:1010E8006D08E0936E08E1E0E0936F08E0E0E093BC
:1010F8007008E0937108E0937208E0937308E09336
:101108007408E0937508E0936B08E0936C08E0932B
:101118007608E0937708E0937808E0937908E093FD
:101128007A08E0937B08E0937C08E0937D08E093DD
:101138007E08E0937F08E0938008E0938108E093BD
:101148008208E0938308E0938408E0938508E0939D
:101158008608E0938708E0938808E0938908E0937D
:101168008A08E0938B08E0938C08E0938D08A4E646
:10117800B0E00E94C20C0E94BA0BA3E0B0E0BFDA54
:10118800ADEBB3E00E94C60B0E94C90BE3DB0E94E3
:10119800B60C18F4ABECB3E002C0A5EDB3E02FDB5E
:1011A8003DDBA8EEB3E00E94C20C099119910895A5
:1011B800249762DFCFDB0E94210B2FDFA0917608F6
:1011C800B091770880917808909179080E948F0BE8
:1011D800E03DA7E0FA07A0E06A07A0E07A0758F028
:1011E800E4DC0E94240BE0937608F0937708609380
:1011F8007808709379081CDDE6B1E2700E94330C20
:10120800E0936B08E03091F0A0916C08EA1769F060
:101218008EDCE0918408E03021F45A9A0E94D70BC2
:101228005A98A8EEB3E00E94C20C01C085DCE09198
:101238006B08E0936C0865DDA0917A08B0917B0893
:1012480080917C0890917D080E948F0BE43FA1E07B
:10125800FA07A0E06A07A0E07A0758F0AADD0E9422
:10126800240BE0937A08F0937B0860937C087093D2
:101278007D08A0CFFFCF0E94F80B9D015E811296DA
:101288000E947E0C309701F1D90114960E947E0CC1
:101298008F01309759F00230E0E01E0768F0F8013E
:1012A80031978F01D9011496ED93FC93D9011296C9
:1012B8000E94110B31975083D9010E947E0CFF23A5
:1012C80012F00E94110B05C0D901EFEFFFEFED936B
:1012D800FC930E94FF0B27960895BA93AA9326972A
:1012E8000E94F80B10E0AC85BD85E0E0F0E0ED93DE
:1012F800FC93EA89FB893196EA8BFB8B3197E49161
:101308002E2FE03009F41DC1E12FE03039F42532E9
:1013180011F411E002C00E94DB0B12C1E130A9F404
:10132800253219F40E94DB0B0AC112E040E000E00C
:101338002D3211F401E004C12B3211F44BE200C14B
:10134800203211F440E2FCC002C0E23039F450E02F
:1013580013E0203311F40068F3C003C0E33009F050
:10136800EFC0203310F02A3308F007C0AAE05A9FD4
:10137800502DE22FE0535E0FE3C0E22FE33649F42D
:101388000E94E20BE889F989A481AA930E94E80BDC
:10139800D6C0E33741F40E94E20B0E94EE0B0E9494
:1013A800E30A1E2F0AC0E03761F40E94E20B0E9494
:1013B800EE0B0E94EF0A1E2F086002600F7730E0E4
:1013C8003CC0E43611F0E93611F4046002C0E53798
:1013D80031F4EEE1F4E0EE83FF8315E00CC0E8356C
:1013E80011F4086003C0E83709F0A9C0E8E2F4E0A6
:1013F800EE83FF8314E002FF17C00E94E20BA88966
:10140800B9891496ED91FD91EA87FB87AB85AA23EC
:101418002AF40E94130CEA87FB874DE2403011F052
:101428001F5F01C00B7F09C00E94E20BA889B98920
:1014380014960E947E0CEA87FB8700FD11C01517E1
:1014480078F407FF08C002FF04C00B7F242F115057
:1014580001C020E301C020E20E94DB0B5150EFCF16
:10146800312F01FF17C03030A1F003FF06C0EE8115
:10147800FF812591EE83FF8305C0AE81BF812D9149
:10148800AE83BF830E94DB0B503009F051503150BE
:10149800EACF4BC020E3EE81FF810E948C0CE887E5
:1014A800F987EE81FF813296EE83FF83E885F9851F
:1014B800AA85BB85AE17BF0750F02F5FA885B985F1
:1014C800EA85FB85EA1BFB0BEA87FB87EFCF2A330C
:1014D80028F003FF02C0295F01C0295D04FD1AC07E
:1014E800213320F4A885B985119709F409C0531749
:1014F80010F000FF01C013C020E207FF0BC020E37B
:10150800006102FF07C00B7F4A930E94E80B50302E
:1015180009F051500E94DB0B503009F05150315006
:10152800A885B985129708F0B5CF00FF08C05030DC
:1015380031F05150E0E2EA930E94E80BF8CF10E056
:10154800D8CEAC85BD85ED91FD910E94FF0B6496C8
:101558000895FF92F82E26970E94F80BFE010E942C
:10156800060C46855785042E052A19F4EFEFFFEF80
:1015780021C0DE0118960E940A0C8D014887598700
:10158800E0E0EA87EB87DE011C960E940A0CED91E9
:10159800FD91FA93EA931A930A93EFE3F9E0FA9329
:1015A800EA93DE011C9699DE9F01A885B985E0E0E3
:1015B800EC93F9010E94FF0B2C96FF900895BA93C3
:1015C800AA93A991B991EE27FF276D91662311F08F
:1015D8003196FBCF0895BA93AA93AA27BB27E9911E
:1015E800F9910590002011F01196FBCFFD010895A7
:1015F800F8010E94190C0E94170CE20FF31FEA5B16
:10160800FB4F0895E0914608F09147080E94190C95
:101618000E94170CED0DFE1D0895ED91FD91319678
:10162800FE93EE930895E0E0F0E0FA93EA930895CC
:101638000E947803A0E00C9478030E949A0C089505
:101648000E94900C089524970E94AE04F6CFE8EE0D
:10165800F3E060E070E00E94530C0895A885B98516
:101668008A859B85E0E8F1E561E070E008950E94D5
:101678007A0CE887F9876A877B87A885B9858A8580
:101688009B850895EC85FD85FA93EA930895FA936E
:10169800EA93F801662777270E949F0C0895F901BD
:1016A800662777270E949F0CFA01662777270E94F2
:1016B8009F0C0895662777270E949F0C0895EE8552
:1016C800FF85F8CF88E00E94AD0A2C96089584E043
:1016D8000E94AD0A28960895A0915108B091520829
:1016E8000895AEDFE0938908F0938A0860938B0829
:1016F80070938C080895E0E0E0938408E0918D08E9
:10170800E0300895A0918508B091860880918708F7
:1017180090918808089594DF0E940E0C0895E83C83
:10172800A0E0FA07A0E06A07A0E07A070895E98137
:10173800FA816B817C810895A0917008B09171083D
:101748008091720890917308F2DF0E940E0C089540
:10175800E0E0E0937508E0937408E0937008E09384
:101768007108E0937208E093730808950E949E033D
:101778005ACFA2E0B0E00C948303E7E5F8E0FA93CF
:10178800EA9308950E9403044ECFA5E0B0E00C94BC
:1017980083030E949F0C9BCFAA8DBB8D8C8D9D8D42
:1017A8000E94BC0C0895A8ECB0E00C94C20C2A93DB
:1017B800AD85BE85EF85F88909950895E889F98989
:1017C8003497E88BF98B0895AD85BE85EF85F88948
:1017D80009950895A889B9891496ED91FD91EE832C
:1017E800FF83AE81BF8108955A934A933A932A930F
:1017F8001A930A9308955D814C813B812A8119814E
:10180800088108950024EF0DF01D08950024AF0D00
:10181800B01D0895EA1BFB0B680B790B0895F19531
:10182800E195F0400895EE0FFF1FEE0FFF1FEE0F3A
:10183800FF1FEE0FFF1F0895F695E795F695E795BC
:10184800F695E795F695E795089576956795F79552
:10185800E79508956F2F660F660B762F0895EE2390
:10186800E1E009F0EE270895FA9FF02DEB9FF00DC7
:10187800EA9FE02DF10D08950024112490E1AA0FAC
:10188800BB1F001C111C0E1A1F0A18F40E0E1F1E77
:1018980001C0A1609A9599F7FD01D00108953F9381
:1018A8004F935F9300241124A00130E2AA0FBB1FBD
:1018B800881F991F001C111C441F551F0E1A1F0A50
:1018C800460B570B28F40E0E1F1E461F571F01C04C
:1018D800A1603A9559F7FD01BC01D001CA015F9199
:1018E8004F913F910895C8DFFD010895D8DFFD01AC
:1018F800BC010895ED91FC9111970895ED91FD912A
:101908006D917D9108957E936E93FE93EE93089565
:101918000590F491E02D0895E881F9816A817B8131
:101928000895A881B9818A819B810895E883F98304
:101938006A837B8308957A936A93FA93EA93089566
:101948009A938A93BA93AA930895182E862F612D95
:10195800192E972F712D1B2EBF2FF12D1A2EAE2F5A
:10196800E12D089500240E160F06060607060895B1
:1019780000240A160B06080609060895109639F081
:10198800A89580EA9FE00197F1F71197C9F70895A4
:00000001FF
